:020000040800F2
:1000000048380020C1020008752E0008D5290008D4
:10001000492E0008391D00083D400008000000007E
:10002000000000000000000000000000D1320008C5
:100030007524000800000000D7020008D90200085B
:10004000DB020008DB020008DB020008DB0200081C
:10005000DB020008DB020008DB020008DB0200080C
:10006000DB020008DB020008DB020008DB020008FC
:10007000DB020008DB020008DB020008DB020008EC
:10008000DB020008DB020008DB020008DB020008DC
:100090001D3F0008DB020008DB020008DB0200084D
:1000A000DB020008DB020008DB020008DB020008BC
:1000B000DB020008DB020008DB020008DB020008AC
:1000C000DB020008DB020008DB020008DB0200089C
:1000D000DB020008DB020008DB020008DB0200088C
:1000E000DB020008DB020008693C0008DB020008B4
:1000F000DB020008DB020008DB020008DB0200086C
:10010000DB020008DB020008DB020008DB0200085B
:10011000DB020008DB020008DB020008DB0200084B
:10012000DB020008DB020008DB020008DB0200083B
:1001300000F002F800F0B0F80AA090E8000C824449
:100140008344AAF10107DA4501D100F0A5F8AFF226
:10015000090EBAE80F0013F0010F18BFFB1A43F0A5
:1001600001031847044A0000244A00000A444FF0E3
:10017000000C10F8013B13F0070408BF10F8014B06
:100180001D1108BF10F8015B641E05D010F8016B4B
:10019000641E01F8016BF9D113F0080F1EBF10F8AF
:1001A000014BAD1C0C1B09D16D1E58BF01F801CBD2
:1001B000FAD505E014F8016B01F8016B6D1EF9D555
:1001C0009142D6D37047000000230024002500266A
:1001D000103A28BF78C1FBD8520728BF30C148BFAA
:1001E0000B6070476E2900F0D981702900F02D83D3
:1001F000662904F0DF83652904F0DC83672904F0B5
:10020000D983612904F0D88303681B0A28BF41F011
:100210008001692900F08681642900F083817529B5
:1002200000F080816F2900F0BA82782900F0F9820D
:10023000E92900F05582E42900F05282F52900F006
:100240004F82EF2900F0B782F82900F0F8820368A6
:10025000DB0928BF41F08001632901F02D8073295B
:1002600001F03280E32901F03D80F32901F0428062
:10027000002070471FB501F093F804000020002112
:1002800004F0C4F9401C60600020002104F0A8F9CB
:10029000E0601FBD10B510BD01F054F81146FFF726
:1002A000E9FF04F0E1F801F031F903B4FFF7F2FFE0
:1002B00003BC04F03CF8000080F30888704700009D
:1002C0000948804709480047FEE7FEE7FEE7FEE7EA
:1002D000FEE7FEE7FEE7FEE7FEE7FEE70448054926
:1002E000054A064B70470000F93B00083101000841
:1002F000483200204838002048340020483400208C
:10030000704700001CB50C46064B7B4469460090C4
:10031000204600F05CF904460020694600F06AF9C6
:1003200020461CBDE70200000FB4044910B503AA23
:10033000029800F065F910BC5DF814FB180000206D
:1003400010B5431C02E010F8011B71B18107FAD10E
:100350004FF0013202C88C1A8C4314EAC211F9D052
:10036000C01A0A0603D0C01E10BDC01A10BD0A0470
:1003700001D0801E10BD0902FCD0401E10BD032A12
:1003800040F2308010F0030C00F0158011F8013BB2
:10039000BCF1020F624498BF11F801CB00F8013B99
:1003A00038BF11F8013BA2F1040298BF00F801CB5D
:1003B00038BF00F8013B11F0030300F01583083A41
:1003C000C0F0088051F8043B083A51F804CBA0E88B
:1003D0000810F5E7121D5CBF51F8043B40F8043BE0
:1003E000AFF30080D20724BF11F8013B11F801CB15
:1003F00048BF11F8012B24BF00F8013B00F801CBE6
:1004000048BF00F8012B70474FF0000200B51346BB
:1004100094469646203922BFA0E80C50A0E80C5024
:10042000B1F12001BFF4F7AF090728BFA0E80C50D5
:1004300048BF0CC05DF804EB890028BF40F8042BCE
:1004400008BF704748BF20F8022B11F0804F18BF3B
:1004500000F8012B7047704770477047704770B5C0
:10046000044685690068C10601D5302600E02026D3
:10047000C00707D070BDD4E9012130469047206AFB
:10048000401C20626D1EF6D570BD70B504468569AE
:100490000078C00707D170BDD4E901212020904722
:1004A000206A401C20626D1EF6D570BD09684A05A1
:1004B00001D540B27047C905FCD500B27047096844
:1004C0004A0501D5C0B27047C905FCD580B2704756
:1004D00070B50C460546012A05D02878800600D55F
:1004E000EA69002302E0012305E05B1C934202D28B
:1004F000E05C0028F9D1A869E618C01AA861286A4A
:10050000184428622846FFF7AAFF04E0D5E9012134
:1005100014F8010B9047B442F8D32846FFF7B5FF13
:1005200070BD00002DE9F0410646002410687529D1
:10053000314616A510D0FFF7B9FF002802DA404275
:1005400013A507E031688A0701D512A502E0490723
:1005500004D511A5012401E0FFF7B1FF00210A2213
:1005600006F1240709E0B0FBF2FCB0FBF2F302FB5A
:100570001C00303078541846491C0028F3D123461B
:100580002A463046BDE8F04100F0A5BA0000000060
:100590002D0000002B000000200000001168026800
:1005A000006A530501D508700AE0D30501D508801B
:1005B00006E0130603D5C217C1E9000200E0086097
:1005C0000120704701694A1C02610878704700B534
:1005D0008FB0CDE901310021059105497944CDE97C
:1005E00003101146684600F03BF90FB000BD000053
:1005F000E5FFFFFF0A6802F8010B0A607047000080
:10060000074B70B50D467B44FFF7E1FF04462846D3
:1006100000F074FE10B14FF0FF3070BD204670BD89
:10062000EB3D00002DE9FF5F15468A460446DFF8E2
:10063000AC80F8440027D8E900103E46CDE9001010
:1006400010E03AF816106A4602A800F05BFE411C62
:1006500007D02178890603D5E269391891420DD86F
:100660000744761C2078800602D5E069B84205DD93
:10067000AE42E6DB3AF816000028E2D1A069C01BC2
:10068000A0612046FFF7EBFED8E90010CDE900108D
:10069000002017E03AF818106A4602A800F032FE6F
:1006A000B0F1FF3F81460BD000250DF1080B05E0AE
:1006B000D4E901211BF8050090476D1C4D45F7D387
:1006C00008F10100B0428046E4DB206A3844206231
:1006D0002046FFF7DAFEBDE8FF9F00003644000029
:1006E0002DE9F0418046D21D22F007020025D2E913
:1006F0000002F52915A614D0011E72F1000106DAD8
:100700000023D0EB030063EB020211A608E0D8F847
:1007100000108B0701D50FA602E0490701D50EA6F0
:1007200001251146002408F1240704E000F08EF9A9
:1007300030323A55641C50EA0102F7D12B4632465A
:1007400021464046BDE8F04100F0C5B90000000078
:100750002D0000002B0000002000000030B400211C
:1007600000F1240408E002F00705D208303542EA1F
:100770004372DB086554491C52EA0305F3D104684F
:10078000002310A2250707D5A40600D421B1C4690F
:1007900001230DA2641EC46130BC00F09CB910B5E9
:1007A000044621461068FFF78AFE02462046BDE84F
:1007B00010400023D2E7D21D22F00701D1E9002327
:1007C000CCE700000000000030000000F0B40D464F
:1007D0000188090502D5214C7C4402E01F4C7C4471
:1007E0000E34002100F1240608E002F00F07120980
:1007F000E75D42EA03721B097754491C52EA03077A
:10080000F3D102780023120704D5702D06D009B168
:10081000022311342246F0BC00F05DB901231034EC
:10082000F8E770B504460D4621461068FFF747FE0D
:10083000024629462046BDE870400023C6E7D21D87
:1008400022F00703D3E90023C0E70368126843F0EE
:10085000200303600823C3610023B7E79842000028
:100860002DE9F05F894604464FF0000ADFF874B1C5
:10087000FB44C0F820A02046E1688847002874D0D7
:10088000252806D0D4E901219047206A401C206227
:10089000F1E700265F462046E168884720280546A4
:1008A00007DB312D05D2781910F8200C08B106436A
:1008B000F1E7B00701D526F00406C4F81CA0002714
:1008C000C4F818A02A2D09D0284603F029FD38B312
:1008D00004EB8708303DC8F8185019E059F8041B9C
:1008E000204604EB87029161E1688847012F0546A5
:1008F00018D1E069002820DA26F020061DE0D8F89B
:10090000180000EB800005EB40003038C8F81800F4
:100910002046E1688847054603F002FD0028EED135
:10092000012F0AD02E2D08D12046E16888477F1C70
:100930000546022F46F02006C4DBA069002803DA32
:10094000404246F00106A061F00701D026F01006F3
:100950006C2D0BD0682D09D04C2D39D06A2D35D097
:10096000742D35D07A2D33D016E038E0E1682F466B
:1009700020468847B842054609D16C2F26D04FF44F
:100980008060E168064320468847054604E06C2FF6
:100990001AD04FF4807006430DB3A5F14100192819
:1009A00002D8203546F400664A462946204626608D
:1009B0004E46FFF717FC80B101280BD0F61D26F03C
:1009C000070000F1080956E74020E4E78020D8E757
:1009D0000020D6E706F104094DE7284652E7206AD1
:1009E000BDE8F09F2842000010B5203AC0F00B800F
:1009F000B1E81850203AA0E81850B1E81850A0E823
:100A00001850BFF4F5AF5FEA027C24BFB1E818507C
:100A1000A0E8185044BF18C918C0BDE810405FEAEC
:100A2000827C24BF51F8043B40F8043B08BF704768
:100A3000D20728BF31F8023B48BF11F8012B28BF6D
:100A400020F8023B48BF00F8012B704730B5B0F1E9
:100A50000A024FEA900E71F100034EEA817EB0EB7C
:100A60000E0061EB91014FEA101E4EEA017E10EB81
:100A70000E0041EB11114FEA102E4EEA016E10EB01
:100A80000E0041EB11214FEA104E4EEA014E10EBE1
:100A90000E0041EB1141401841F100014FEAD00036
:100AA00040EA41704FEAD10110EB80054FEA810422
:100AB00044EA907444EB01046D1944EB0404521BA6
:100AC000A3414FF0000348BF0A3200D530BD401C9F
:100AD00041F1000130BD2DE9F0470D46994692469F
:100AE000044600F124080168880604D5E06921F075
:100AF0001001216000E00120A84201DD471B00E059
:100B00000027A1697A1902EB0900081AA061207870
:100B1000C00602D42046FFF7A2FC002608E0D4E974
:100B200001211AF806009047206A401C761C2062BA
:100B30004E45F4DB2078C0060AD52046FFF78FFC2F
:100B400006E0D4E9012130209047206A401C206251
:100B5000381EA7F10107F4DC07E0D4E9012118F8F9
:100B600005009047206A401C2062281EA5F101055F
:100B7000F3DC2046FFF789FC2078000602D502202E
:100B8000BDE8F0870120FBE770472DE9FF4F0C46D9
:100B90001E464FF0FF378BB0D2E90001DDF86080D0
:100BA0000A908A46C1F30A5505B93D460021084618
:100BB0004FF00000BAF1000F00F4400005DA00EB3E
:100BC00080004FF4400101EA50004FEA9059B9F11A
:100BD000010F00DDB9460A9850EA4A000ED044F6EB
:100BE0001050A5F2FF3545432F14B8F1000F1ED069
:100BF0007542291E1EDDC9F100021CE0B8F1010F8B
:100C00004FF0000001D0302103E0F24305E0215411
:100C1000401CB042FBDB30460022002121540B99DE
:100C2000C1F80880C1E900200FB0BDE8F08FBD1BFE
:100C30006D1CDEE74A4600DA694206A800F0F4FBC4
:100C400006AB93E8070003AB83E8070050460A9918
:100C500000F0AAFC8DE80700A0F500501F380090B6
:100C60000398002D0ADD42F21F014A460844002382
:100C700003A90390684600F013FF09E0A0F50050B7
:100C80004A461F38002303A90390684600F01DFF61
:100C90008DE807000004000C03D04FF0FF3041083E
:100CA00000E01046B8F1000F03D000220092154674
:100CB0001EE0751E05D4FFF7C9FE303262556D1E69
:100CC000F9D5B3460122084302D000227F1C04E07C
:100CD0002078302801D100227F1E002A099784D075
:100CE0001DE0112D07DAFFF7B1FE303262556D1CA1
:100CF00050EA0102F5D1084302D00098C8B10EE0D5
:100D00000021681E05E0235C625C63542254401E8F
:100D1000491C8142F7DBAB46A81B401E099000200E
:100D200004F80B000B98099AC0F80880C0E9002B62
:100D30007AE711264FF0000857E72DE9F04F884673
:100D40000446D21D22F0070191B0D1E90001CDE99E
:100D50000A0103F0D1FA02460B98C00F01D02D20F2
:100D600007E02068810701D52B2002E0202101EA5D
:100D7000C000032A099001D0072A05DB034641463B
:100D8000204600F011FB0BE12078800601D5E069D8
:100D900000E00620B8F1650F814606D0B8F1660F75
:100DA00018D0B8F1670F70D131E00020B9F1110F00
:100DB000009001DB112301E009F101030AAA01A956
:100DC0000CA8FFF7E2FEDDE90C70002609F1010531
:100DD000834647E001204B4600904FF000470AAAA7
:100DE00001A90CA8FFF7D1FEDDE90DB00C995D4615
:100DF000002610B909F101000D18B9EB050003D464
:100E0000C0F1FF3609F10105A5EB09002BE0B9F1AE
:100E1000010F01DA4FF001090020B9F1110F009024
:100E2000484601DD112300E003460AAA01A90CA8E7
:100E3000FFF7ABFEDDE90C704D46002683462078B7
:100E400000070AD4AB4500DA5D4601A8012D04DD98
:100E5000411911F8011C302907D04F4502DA17F16A
:100E6000040F04DA012082460FE06D1EEEE7002F2A
:100E700002DCED1B3E4403E0781CA84200DD7D1C33
:100E8000B81B00F1010A4FF000472078000703D497
:100E9000AA4501DB4FF0FF3A0021B7F1004F0DF1F9
:100EA00043088DF8431024D002202B23002F01DAB1
:100EB0007F422D230A21021EA0F1010000DC5FB158
:100EC00097FBF1FC97FBF1F201FB1C7C17460CF140
:100ED000300C08F801CDEEE7A8F10100037021887D
:100EE000090501D5452100E06521A0F1010800F8C0
:100EF000011C09980FA9A1EB0807FF1D00B10120F3
:100F0000411901EBEA70A1693844081A401EA0613A
:100F10002078C00602D42046FFF7A1FA099828B12C
:100F2000D4E901219047206A401C20622078C00645
:100F300022D52046FFF793FA1EE0002E04DBB345CE
:100F400002DD01A8805D00E03020D4E90121904756
:100F5000206A401C2062761CAAF101005FEA000AA8
:100F60000AD100F01DFAC0680168405CD4E9012193
:100F70009047206A401C2062281EA5F10105DCDC98
:100F800007E0D4E9012118F8010B9047206A401CC2
:100F90002062381EA7F10107F3DC2046FFF775FA3F
:100FA000032011B041E600002DE9F04F04460D4644
:100FB000D21D22F0070089B0D0E900974846394693
:100FC00003F09AF90246F80F01D02D2307E02068BC
:100FD000810701D52B2302E0202101EAC0038DF80F
:100FE00020300BB1012000E00020032A824601D00E
:100FF000072A04DB2946204600F0D6F93FE1207895
:10100000800601D40D2500E0E569C7F30A560D2DD1
:1010100049DA00214FEA175B08464FF00000002F25
:1010200000F4400007DA00EB80004FF4400100EBD1
:10103000D07001EA60008115012901DD4FF0FF3118
:1010400000224FEA850CBCF1180F06D31346ACF111
:1010500018004FF08052C24003E04FF4801323FA8F
:101060000CF30CF10C0CBCF1200F04D3ACF1200CF0
:1010700009FA0CF001E007FA0CF000294FF00048E3
:1010800001DD18B90FE00ED140450CD319EB020970
:101090005F4121B9404502D19F4329EA0209BBEBD8
:1010A000175F00D0761C2088000502D57B48784465
:1010B00002E07A487844193808AA302302F80A3046
:1010C000037C0AF10101002E0AF1020A53546A4618
:1010D00002DC4FF0300101E04FF031014FF0010828
:1010E0008DF8001002D0A6F2FF3603E059EA47015E
:1010F00000D06B4E002D02DC2178090704D54FF09B
:1011000002082E218DF80110C44600210BE0C7F320
:1011100003433F01C35C491C6D1E02F808300529DA
:1011200008F1010801DA002DF1DC00210CE000EBF0
:101130001973491C1B786D1E082902F808304FEA04
:10114000091908F1010801DA002DF0DC21688B068D
:1011500002D516E0A8F10108E04505DD02EB080321
:1011600013F8013C302BF5D0B8F1000F09DD02EB8C
:10117000080313F8013C2E2B03D1090701D4A8F171
:101180000108002D05DD3E2102F808106D1E08F152
:101190000108407C002E02F8080008F1010804DA7A
:1011A0002D20764202F8080002E02B2002F8080009
:1011B0000A214FF47A70864208F101080BDB96FB96
:1011C000F0F3303302F8083096FBF0F308F1010831
:1011D00000FB136601E0642E0CDB642096FBF0F349
:1011E000303302F8083096FBF0F308F1010800FBF9
:1011F000136601E00A2E06DB96FBF1F0303002F8B0
:10120000080008F1010896FBF1F001FB1060303096
:1012100002F80800A16908F1010808EB050202EBD9
:101220000A00081AA0612078C00602D42046FFF701
:1012300016F9216A08AE01EB0A00206204E0D4E945
:10124000012116F8010B9047BAF1010AF7D2207874
:10125000C00602D52046FFF702F96E4609E016F8EF
:10126000010B3E280FD0D4E901219047206A401C91
:101270002062B8F10108F2D22046FFF706F909B062
:101280000320BDE8F08F206A2844206203E0D4E9FF
:101290000121302090476D1EEBD3F8E70E3A000095
:1012A00002FCFFFF10B5436913B1AFF3008001E00A
:1012B000FFF70EF9012010BD127800F124010A7029
:1012C00000224A700122EDE711684FF0FF32E9E792
:1012D00010B5436913B1AFF3008001E0FFF7A2F945
:1012E000012010BD128800F1240182840022C284F2
:1012F0000122EDE711684FF0FF32E9E7007B00F0D3
:101300008000704770B516460C46054600F040F860
:10131000036893F80101012806D0FF2C0FD8185D4F
:1013200068B101202C7070BDD3F807013246214608
:1013300003F2071303442846BDE8704018474FF0F6
:10134000FF3070BD754600F0EBF8AE46050069460B
:10135000534620F00700854618B020B5FEF7BEFFC3
:10136000BDE820404FF000064FF000074FF00008A6
:101370004FF0000B21F00701AC46ACE8C009ACE827
:10138000C009ACE8C009ACE8C0098D467047000050
:1013900010B500F005F8001D10BD00BF713200004F
:1013A00000487047043200202DE9F0411F460446F2
:1013B00003260168072A01F4006004DB08B116A5C2
:1013C00005E016A503E008B115A500E015A521F07C
:1013D00010002060A069C01EA0610FB1401EA06176
:1013E0002046FFF73CF84FB1D4E901213846904739
:1013F000206A401C2062C01C206206E0206AFAE7D6
:10140000D4E9012115F8010B9047761EF8D2204649
:10141000FFF73BF8BDE8F0814E414E006E616E0073
:10142000494E4600696E66002DE9F0478146164632
:101430008AB0354878440DC88DE80D0032487844AC
:10144000801C03AC0DC884E80D0041F69B300844B5
:10145000372190FBF1F290FBF1F5A5F1800501FB3E
:1014600012041B3C02D56442012000E00020DFF89A
:1014700098A080460027FA44AAF1BE0A0EE0E007D1
:101480000AD03246684607EB470101230AEB810187
:1014900000F01BFB8DE8070064107F1C002CEED1D0
:1014A000194F7F44AE3F19E0E80715D007EB041051
:1014B0000DF1180A90E80E008AE80E00C068F042AC
:1014C00001D1981908903246012306A903A800F01B
:1014D000FCFA03AB83E807006D10641C002DE3D118
:1014E0004FF0010332466946B8F1000F03A802D05D
:1014F00000F0D6FA01E000F0E8FAC9E90001C9F805
:1015000008200AB0BDE8F0871837000010B504467F
:10151000AFF300802046BDE81040FEF7C6BE0000D5
:1015200000487047E43100204FF0013C50F8042B94
:1015300051F8043B9A4221D1A2EB0C03934313EAE6
:10154000CC1317D150F8042B51F8043B9A4215D113
:10155000A2EB0C03934313EACC130BD150F8042BEA
:1015600051F8043B9A4209D1A2EB0C03934313EACE
:10157000CC13DBD04FF00000704700BFD01A01BA87
:10158000B1FA81F101F0180122FA01F0CB40C1F16A
:101590002001DBB2C0B2C01A2CFA01F3D11A914378
:1015A00011EAC311E6D170475FEA400C08BF91F021
:1015B000000F4FEA8C234FEAC12243EA51514FEA10
:1015C0001C5018BF00F5F0404FEA300018BF41F042
:1015D00000415FEA6C5C00F02980BCF1FF3F08BF6E
:1015E00040F080407047130C06BF12044FF0100CFF
:1015F0004FF0000C130E04BF12020CF1080C130F75
:1016000004BF12010CF1040C930F04BF92000CF103
:10161000020CD30F04BF52000CF1010C11464FF025
:101620000002A0F11F00A0EB0C00704711F0004F6A
:1016300008BF704731F000413FF4D5AF0B0C06BF37
:1016400009044FF0100C4FF0000C0B0E04BF090200
:101650000CF1080C0B0F04BF09010CF1040C8B0FEB
:1016600004BF89000CF1020CCB0F04BF49000CF140
:10167000010CCCF12003A0EB0C0022FA03F302FAD8
:101680000CF241EA030100F10100704720F07F4CA9
:1016900080EA030023F07F47ACEB070303F57C539C
:1016A00000F0004003F1FF032DE980494FEA154B9C
:1016B00009B44FEA144325EA0B4E24EA03480FF21B
:1016C000042606EB132749083E785FEA320203FB43
:1016D0000667C7F5000707FB06F64FEA54374FEADF
:1016E000D64606F1020607FB066CCCF1005C4FEA19
:1016F0001C472CEA074C07FB06F40CFB06F504EB31
:1017000015464FEA961634BF00204FF000404FEACE
:10171000D13706FB07FC4FEA1C4C0CFB0BF7D21B26
:1017200003FB0CF761EB07010CFB0EF7B0EB074076
:1017300072EB17420CFB08F734BFA2EB0742B2EB87
:10174000074261EB17414FEA0C444FEA910706FB51
:1017500007FC4FEA1C4C0CFB0BF7B0EBC74072EBDD
:10176000573203FB0CF734BFA2EBC742B2EBC742C0
:1017700061EB57310CFB0EF7B0EBC70072EB577201
:101780000CFB08F734BFA2EBC702B2EBC70261EB58
:101790005771039F4FEA816141EA921104EBCC0437
:1017A0004FEAD1374FEA826206FB07FC42EA901209
:1017B0004FEA80604FEA1C4C0CFB0BF7D21B03FB7B
:1017C0000CF761EB07010CFB0EF7B0EB074072EB77
:1017D00017420CFB08F734BFA2EB0742B2EB0742FB
:1017E00061EB17414FEA8C554FEA910704EB9C24BB
:1017F00006FB07FC4FEA1C4C0CFB0BF7B0EBC74099
:1018000072EB573203FB0CF734BFA2EBC742B2EBCB
:10181000C74261EB57310CFB0EF7B0EBC70072EB20
:1018200057720CFB08F734BFA2EBC702B2EBC7023A
:1018300061EB577115EB4C254FEA816141EA92113A
:101840004FEA82624FEAD13742EA901206FB07FC68
:1018500044F100044FEA80604FEA1C4C0CFB0BF78C
:10186000D21B03FB0CF761EB07010CFB0EF7B0EB8F
:10187000074072EB17420CFB08F734BFA2EB07429C
:10188000B2EB074261EB174115EB1C154FEA8131B2
:1018900041EA92414FEA823242EA90424FEA803076
:1018A0004FEA0C7644F1000448EA03434EEA0B4841
:1018B0004FF0000EB2EB080C71EB030724BF624639
:1018C00039464EEB0E0E4FF0000B001852414941C5
:1018D0004BEB0B0BB2EB080C71EB03077BF1000B2E
:1018E00024BF624639464EEB0E0E4FF0000B001837
:1018F000524149414BEB0B0BB2EB080C71EB030768
:101900007BF1000B24BF624639464EEB0E0E51EAC6
:10191000020718BF46F0010616EB0E7655F10002DD
:1019200054F1000103D5BDE88901BDE80088BDE898
:101930008901BDE80048B619524141EB0101A3F10C
:101940000103704780807F7E7D7C7B7A7978777613
:1019500076757473727171706F6E6E6D6C6C6B6A8C
:101960006A6968686766666564646363626161602A
:10197000605F5F5E5E5D5D5C5C5B5B5A5A595958A7
:101980005857575656555555545453535252525111
:10199000515050504F4F4F4E4E4D4D4D4C4C4C4B67
:1019A0004B4B4A4A4A4949494848484747474746AE
:1019B00046464545454444444443434343424242EA
:1019C00042414141002B9C4630D477002BD01CB5BE
:1019D0004FEA370703B44FF010004FF01001BAF18F
:1019E000000F06D0BCF1000FDCBF40F0080040F053
:1019F00008014FF000000FBCBDE810400BF1010BD7
:101A0000BBF1010F08BF5FEA170722BF12F1010205
:101A100011F101014FF0004143F1000300F00040DB
:101A200043EA00007047F9D35708D0E746EA064674
:101A300013F1400F4FEA16461FDD13F1200FDFBFF1
:101A400016430A46002120335B42BED0C3F1200773
:101A500046EA064602FA07F74FEA164646EA07063E
:101A6000C3F1200722FA03F201FA07F721FA03F182
:101A70004FF0000342EA0702A7E746EA020646EAF9
:101A800006464FEA164646EA0106BCBF46EA064647
:101A9000360C4FF000034FF000024FF0000194E7C6
:101AA0002DE9804C9A46934670B491E8380007C8F7
:101AB00031EA400C48BF34EA430C03D5FFF7E6FD9A
:101AC000FFF780FFF0BCBDE8008C2DE9804C9A4602
:101AD000934670B491E8380007C810F0804F08BFF3
:101AE00013F0804F03D100F005F8FFF76BFFF0BC57
:101AF000BDE8008C20F07F4780EA030023F07F4C94
:101B000007EB0C03A3F57C5300F00040A3F1FE03A8
:101B100092F0000F00F0B38095F0000F00F0778096
:101B20002DE901494FEA11404FEA144621EA0048E5
:101B300000FB06FC24EA064708FB06F607FB08F84C
:101B400000FB07F718EB06484CEB164C4FEA124B1C
:101B500018EB07484FEA15464CEB174022EA0B4EAC
:101B60000BFB06FC25EA06470EFB06F607FB0EFEFE
:101B70000BFB07F71EEB064E4CEB164C4FF0000626
:101B80001EEB074E4CEB174B18EB0B0840F1000017
:101B900018EB0E0B58EB000840F100008F1A4FF0C5
:101BA00000013CBFC943661B14BFB5EB040C002108
:101BB0003CBFC943F61B4FEA17444EEA8E0E27EA94
:101BC00004454FEA1C4704FB07622CEA074C05FB5F
:101BD00007F70CFB05F604FB0CFC16EB074642EB83
:101BE000174216EB0C4642EB1C421BEB060658EB69
:101BF0000202414146EA9E0601D5BDE80189B619B7
:101C0000524141EB0101A3F10103BDE801894FEA13
:101C100014454FEA114724EA054621EA074C05FB23
:101C200007F406FB07F70CFB06F105FB0CFC11EBB8
:101C3000074144EB17444FEA124711EB0C4144EBC8
:101C40001C4422EA074C05FB07F206FB07F70CFBD6
:101C500006F605FB0CFC16EB074642EB174216EBAB
:101C60000C4642EB1C456A1854F1000148BF70470E
:101C7000B619524141EB0101A3F10103704795F000
:101C8000000F37D04FEA11424FEA144721EA0246CB
:101C900024EA074C02FB07F106FB07F70CFB06F4EE
:101CA00002FB0CFC14EB074441EB17414FEA1547CC
:101CB00014EB0C4441EB1C4125EA074C02FB07F5F1
:101CC00006FB07F70CFB06F602FB0CFC16EB0746BF
:101CD00045EB174516EB0C4645EB1C42121951F12A
:101CE000000148BF7047B619524141EB0101A3F111
:101CF000010370474FEA14454FEA114724EA0546AD
:101D000021EA074C05FB07F106FB07F70CFB06F27F
:101D10004FF0000605FB0CFC12EB074241EB1741AC
:101D200012EB0C4251EB1C4148BF7047921841EB3B
:101D30000101A3F10103704700BFFEE70146CAB2EB
:101D40000B1243EA0220704708B50020009022E100
:101D50009748008800F00F00964908700846007800
:101D600000287CD19448006894490880084600887F
:101D700000F03000924908809048008800F44050FC
:101D80008E4908808C4909684BF6BF7201EA02004F
:101D900080F4005080F0200040F4004141F08001C8
:101DA000854A11608248008800F0100090BB104600
:101DB000006848F60F7108401146086000F0CCFF3B
:101DC0007D4909684BF6BF7201EA02007B49098828
:101DD00001F4805109B180F480507849098801F4F8
:101DE000005109B180F400507549098801F01001D3
:101DF00009B180F010007249098801F0200109B191
:101E000080F0200081B241F4004141F080016A4A33
:101E1000116008BDFFE76848006880B20090BDF817
:101E2000000000F40060B0B363480068C0F30E0027
:101E300048F68F7108406049086001F0D5FB5E49A3
:101E400009684BF6BF7201EA02005C49098801F497
:101E5000805109B180F480505849098800E056E06B
:101E600001F4005109B180F400505549098801F08E
:101E7000100109B180F010005149098801F02001DA
:101E800009B180F0200081B241F4004141F08001AD
:101E9000494A1160BDE7FFE7BDF8000000F40040CB
:101EA000002878D044480068C0F30E0048F68F71CF
:101EB00008404149086001F0B3F83F4909684BF612
:101EC000BF7201EA02003D49098801F4805109B15D
:101ED00080F480503949098801F4005109B180F437
:101EE00000503749098801F0100109B180F0100055
:101EF0003349098801F0200109B180F0200081B246
:101F000041F4004141F080012B4A116081E72948EA
:101F100000782C4901EB8000D0F8000C80B20090D2
:101F2000BDF8000000F40040C0B12248007801EB89
:101F30008000D0F8000CC0F30E0048F68F71084006
:101F40001C4909781F4A02EB8101C1F8000C1949AC
:101F50000978491E1C4A52F821008047BDF800004C
:101F600000F08000B8B113480078164901EB8000FA
:101F7000D0F8000C48F60F7108400E490978114A54
:101F800002EB8101C1F8000C0A490978491E0F4A89
:101F900052F82100804708484430006880B2044964
:101FA000088000F4004000287FF4D2AE00BF30E784
:101FB0006800002020000020005C00403400002069
:101FC00036000020005000409000002074000020E7
:101FD0000B4A02EB8001D1F8001C01F4804171B181
:101FE00002EB8001D1F8001C48F68F7211404CF2D0
:101FF00080021143024B03EB8002C2F8001C7047C1
:10200000005000400B4A02EB8001D1F8001C01F0A7
:10201000400171B102EB8001D1F8001C48F68F72CB
:10202000114048F2C0021143024B03EB8002C2F898
:10203000001C704700500040084A02EB8001D1F8B4
:10204000001C48F68F62114048F280021143034B96
:1020500003EB8002C2F8001C7047000000500040F3
:102060002DE9F0472848006800F110052E88264821
:102070000068077AD6B9042F18D1244800780128BF
:102080000FD100212248006880B2801C214A42F80A
:10209000101030202049088000BF00201B49087024
:1020A00003E0072710201C49088027E0AC88A642DF
:1020B00001D8042000E002200746B44200D934468B
:1020C000A0B2A96888478046002000F059FC8146EC
:1020D000A2B24946404601F0B3FFA1B2002001F090
:1020E000ABF92888001B288068882044688030204D
:1020F0000949088000020949088000BF02490968AF
:102100000F72BDE8F0870000240000201E000020B0
:10211000505C004000600040360000203400002089
:102120002DE9F0412848006800F110042688A068D5
:10213000C0B1BEB1A588B54200D93546A8B2A168E4
:10214000884707462088401B20806088284460809C
:10215000002000F0F3FB8046AAB24146384600F06A
:1021600087FF00BF208850B14FF4405017490880C6
:102170000021084601F060F93020154908802088C8
:10218000A188884204DB03200F490968087218E01F
:102190002088002804DD05200B490968087210E03A
:1021A000208870B90620084909680872002109488A
:1021B000006880B2801C084A42F8101030200449A0
:1021C0000880BDE8F08100002400002034000020D9
:1021D00036000020505C0040006000402DE9F84FC0
:1021E0009B48006845780027BA46062D1BD19848C1
:1021F0000068007800F07F00002813D19449096836
:102200008878012803D193490968CF690AE0022838
:1022100003D1904909680F6A04E0032802D18D496F
:1022200009684F6A94E0002D64D1894800684088AD
:1022300000285FD186480068C08802285AD18448A7
:1022400000680079002855D181480068007800F0C6
:102250007F0028B97E480068808808B97E4F77E003
:102260007B480068007800F07F00012810D1784991
:1022700009684879774909688A69002190470028E8
:1022800066D173480068807A002861D0724F5FE0A1
:102290006F480068007800F07F00022858D16C4831
:1022A0000068407900F00F0669480068407900F046
:1022B000700967480068407900F0800038B16749CC
:1022C00001EB8600D0F8000C00F0300806E063490E
:1022D00001EB8600D0F8000C00F44058604800780C
:1022E000B04235D9B9F1000F32D1B8F1000F2FD07B
:1022F000594F2DE0082D07D155480068007800F0AF
:102300007F0028BB574F23E00A2D21D15048006899
:10231000007800F07F0001281AD14D480068807ACB
:10232000B0B14B480068408890B9494800680079CE
:1023300070B947480068C088012809D14449096834
:102340004879444909688A690021904700B9464F95
:1023500057B13F480068A0F812A03D480068876167
:102360000020B84700240FE0394A12685078394AF3
:102370001268116988470446032C05D109203449A5
:1023800009680872BDE8F88F31480068008A4FF686
:10239000FF71884204D109202D4909680872F1E7CC
:1023A000022C03D02A480068008A20B90820284956
:1023B00009680872E6E726480068007800F08000A7
:1023C000E0B323480068C088009021480068008A74
:1023D0000099884204D91E4900980968088223E0C0
:1023E0001B480068008A1A490968C98888421BDAB4
:1023F00017480068008A1749096891F82C1088422C
:1024000003DA0020194908700EE011480068008ABC
:102410001049096891F82C1090FBF1F201FB1200B1
:1024200010B90120114908700A48006890F82C1072
:10243000074800688182FFF713FE07E0FFE70320EB
:1024400003490968087200030949088000BF99E739
:102450002400002028000020893800080050004097
:10246000B80000200D3800085D3800081E0000206C
:10247000340000207047000070B52948418800886A
:10248000814217D12748007878B10020254908708B
:10249000254948190022C02101F0D2FD0021012068
:1024A00000F0CAFF012000F0F5FF00211C48418028
:1024B000018070BD1A4841880088814205DA1848B9
:1024C00001884088081A84B204E015484088C0F5A5
:1024D000805084B2402C00DD40241148458840885B
:1024E000204481B20E4841804088B0F5805F02DB15
:1024F00000210B484180402C02D10120094908707D
:10250000094948192246C02101F09AFD21460120BF
:1025100000F092FF012000F0BDFF00BFC9E70000FE
:1025200080110020600000208001002010B50649C5
:10253000032001F035FD84B2E1B2034801F0C2FF8F
:10254000032000F04FFF10BD8431002001490860D6
:102550007047000014040140002123498279002AB9
:102560003AD00A46126803689A430B461A600A1D5D
:10257000126803689A430B1D1A60027911440A68B5
:1025800003681A430A60184A0832126803689A43BB
:10259000154B08331A601A1D126803689A43124BD0
:1025A0000C331A604279102A0ED11A1F1268036880
:1025B0001A430D4B08331A601A1D126803681A4338
:1025C000094B0C331A600DE00749427911440A683F
:1025D00003681A430A6005E0027911440A68036837
:1025E0009A430A60704700000004014010B503A040
:1025F000FDF79AFE03200849086010BD757362203C
:10260000656E746572206C6F7720706F77657220CD
:102610006D6F64650D0A00004001002030B504466E
:1026200004254FF4302000F085F80546042D17D11D
:102630000C48006940F002000A49086108464461FC
:10264000006940F0400008614FF4302000F072F85B
:1026500005460448006941F6FD71084001490861DA
:10266000284630BD0020024004200B49C96801F013
:10267000010109B101200EE00749C96801F0040118
:1026800009B1022007E00449C96801F0100109B14D
:10269000032000E004207047002002400348006946
:1026A00040F08000014908617047000000200240AE
:1026B00078B506460C46042500200090E80200F09C
:1026C00039F80546042D24D11348006940F0010073
:1026D000114908613480E80200F02CF80546042D09
:1026E00010D1B01C0090200C00990880E80200F086
:1026F00021F805460848006941F6FE710840064980
:10270000086106E00448006941F6FE71084002498C
:102710000861284678BD00000020024002480349B5
:102720004860034848607047230167450020024025
:10273000AB89EFCD00B502460423FFF795FF0346B2
:1027400003E0FFF791FF0346521E012B01D1002A3F
:10275000F7D102B90523184600BD000010B50446A4
:102760002948844208D10121042000F009FD0021FC
:10277000042000F005FD46E02448844208D10121F0
:10278000082000F0FDFC0021082000F0F9FC3AE0F0
:102790001F48844208D10121102000F0F1FC0021E3
:1027A000102000F0EDFC2EE01A48844208D10121EF
:1027B000202000F0E5FC0021202000F0E1FC22E0D8
:1027C0001548844208D10121402000F0D9FC0021A5
:1027D000402000F0D5FC16E01048844208D10121C9
:1027E000802000F0CDFC0021802000F0C9FC0AE030
:1027F0000B48844207D10121801500F0C1FC002163
:10280000A01500F0BDFC10BD00080140000C014007
:10281000001001400014014000180140001C01405C
:10282000002001402DE9F04102460025002600204D
:1028300000230024002791F803C00CF00F0591F845
:1028400003C00CF0100CBCF1000F03D091F802C0D3
:102850004CEA050591F800C0BCF1000F31D01468B6
:1028600000202BE04FF0010C0CFA00F3B1F800C08F
:102870000CEA03069E4220D183004FF00F0C0CFAA5
:1028800003F7BC4305FA03FC4CEA040491F803C0C7
:10289000BCF1280F06D14FF0010C0CFA00FCC2F875
:1028A00014C00AE091F803C0BCF1480F05D14FF005
:1028B000010C0CFA00FCC2F810C0401C0828D1D34F
:1028C0001460B1F800C0BCF1FF0F34DD5468002083
:1028D0002EE000F1080C4FF0010808FA0CF3B1F8F3
:1028E00000C00CEA03069E4221D183004FF00F0C7A
:1028F0000CFA03F7BC4305FA03FC4CEA040491F814
:1029000003C0BCF1280F05D100F1080C08FA0CF83F
:10291000C2F8148091F803C0BCF1480F07D100F150
:10292000080C4FF0010808FA0CF8C2F81080401C9F
:102930000828CED35460BDE8F08100000146054868
:10294000006880B200EBC100001D034A32F810009D
:1029500080B27047505C004000600040014606486D
:10296000006880B200EBC100801D044A32F81000FC
:10297000C0F3090070470000505C00400060004058
:1029800001460548006880B200EBC100034A32F8F6
:10299000100080B270470000505C004000600040B2
:1029A00070B50A480468001D0568001D06683444B7
:1029B00054B108220649204600F006FA04220449D0
:1029C0001031284600F000FA70BD0000E8F7FF1F44
:1029D0004600002000BFFEE770B506460D46002405
:1029E000FFF79CFE00BF08E056F82410084A126862
:1029F00002EB8400FFF75CFE641CAC42F4D3FFF7EB
:102A00004DFE0348006800EB85000149086070BD79
:102A1000580100202DE9F84F2F480068C50AED0243
:102A20002D4800682D490968084400F500604FEA08
:102A3000D0284FEAC828A8EB0500012101EBD027D8
:102A400000240026FFF76AFE00BF2BE0002609E005
:102A500005EBC42030F814004FF6FF71884200D017
:102A600003E0761CB6F5806FF2D300BFB6F5806F39
:102A700003D205EBC420FFF7D1FD384601F0BAFEC2
:102A80008346204601F0B6FE5946009001F0D4FD81
:102A90008246134901F0C2FE814601F08FFE1149C2
:102AA0000860641CBC42D1D3384601F0A3FE8346C3
:102AB000204601F09FFE5946009001F0BDFD824680
:102AC000074901F0ABFE814601F078FE0549086038
:102AD000FFF7E4FDBDE8F88F54010020500100200D
:102AE0000000C8424C01002070B504460D46206825
:102AF000411E204601F01EFC2168491E54F8211099
:102B0000884254D16068082850D2DFE800F04F04B2
:102B100007161C252E4A00F091F847E02068011F97
:102B200004F10C00FFF758FF2068401E54F82010F5
:102B30000220A26800F048F838E000220320A168D3
:102B400000F042F832E000220420A16800F03CF8D6
:102B500001201749087029E01649A0680860002282
:102B60000520E16800F030F820E01349A068086013
:102B70000846006800F100600860084600680F49D8
:102B800008600D48006801F015FD00220620E1688C
:102B900000F01AF800200A4908600120094908706D
:102BA00004E00748006800F032F800BF00BF70BDC5
:102BB0005D01002050010020540100205801002038
:102BC0004C0100205C01002070B586B004460D4623
:102BD000164618216846FDF717FC062000900120D4
:102BE00001900294039504960521684601F0A2FB2A
:102BF00005900621684600F002F806B070BD70B579
:102C000005460C46A100284601F0F8F970BD1FB535
:102C10000446002000900190029003900320009051
:102C20000420019002940321684601F083FB039085
:102C300004216846FFF7E3FF1FBD000000B589B01F
:102C4000202101A8FDF7E0FB08200190022002905E
:102C50000D48006803900C48001D006804900A4865
:102C60000830006805907B2006904FF4E4700790D0
:102C7000072101A801F05EFB0890082101A8FFF7D9
:102C8000BEFF09B000BD0000E8F7FF1F10B500212E
:102C9000042000F065FA0021082000F061FA00210C
:102CA000102000F05DFA0348FFF758FD0248FFF7D7
:102CB00055FD10BD000C01400010014008B5012178
:102CC000042000F04DFA0121082000F049FA01210A
:102CD000102000F045FA10208DF8030003208DF835
:102CE00002000720ADF8000069461548FFF79AFD7D
:102CF0000020144908601449C1F8840111490831C1
:102D0000086010208DF803004FF4E070ADF800006B
:102D100069460E48FFF786FD00200D490860091D31
:102D200008600C49C1F8A00148208DF803004FF459
:102D3000E040ADF8000069460148FFF773FD08BDAB
:102D4000000C01408081214200802142001001409E
:102D5000980122420000224210B518480068047A07
:102D6000022C01D0042C05D1FFF77AF91348006832
:102D7000047A1CE0062C19D1104800684078052818
:102D80000ED10E480068007800F07F0040B90B4972
:102D90000968C87800F0A6FA09490968086A8047F6
:102DA0000849096888688047082400E00824034926
:102DB00009680C7200F070F910BD000024000020BA
:102DC000300000202800002030B50B46002100BF55
:102DD00016E00A24B4EB107F05D9302404EB1074FC
:102DE00003F8114005E0412404EB10740A3C03F899
:102DF0001140000100254C00641C1D554C1CE1B223
:102E00009142E6DB30BD000010B5074C07A0FDF78E
:102E10008BFAA07A18B105200A49086002E0012067
:102E20000849086010BD0000640100206C656176EF
:102E300065206C6F7720706F776572206D6F6465A9
:102E40000D0A00004001002000BFFEE710B564201D
:102E500001F0AAFA002001F065F8642001F0A4FA5C
:102E6000012001F05FF800F0B5FB00F045FF00F035
:102E700025FF10BD7047704770B5002100230F2259
:102E8000C47804B3154C246804F4E064C4F5E06429
:102E9000210AC1F10403CA40447804FA03F184789A
:102EA0001440214309010E4C0678A155047804F022
:102EB0001F050124AC4005786D11AD0005F1E0253A
:102EC000C5F8004109E0047804F01F050124AC4076
:102ED000044D0678761145F8264070BD0CED00E0F3
:102EE00000E400E080E100E070B502264748006899
:102EF000447846480068007800F07F00002844D1FC
:102F0000092C03D100F040FD06465FE0052C14D1EA
:102F10003E480068C0787F280BDC3C480068807819
:102F200038B93A480068808818B938480068807A0B
:102F300008B1082565E0002648E0032C0ED133488F
:102F40000068C078012807D130480068808818B927
:102F500000F03EFD064639E0022637E0012C35D16F
:102F60002A480068C07801280DD128480068808868
:102F700048B926480068407A00F0200018B100F0F7
:102F80008FFB064622E0022620E0204800680078F9
:102F900000F07F00012805D10B2C17D100F094FD23
:102FA000064613E019480068007800F07F00022808
:102FB0000BD1012C03D100F073FB064606E0032C75
:102FC00004D100F019FD064600E002264EB1E0B241
:102FD0000F4A1268516988470646032E01D1092518
:102FE0000FE00EB108250CE0062500210948006815
:102FF00080B2801C084A42F810103020074908802F
:1030000000BF024909680D7270BD00002400002055
:1030100028000020505C0040006000403600002086
:1030200010B511480068047A022C01D0042C01D19B
:10303000082412E0032C01D0052C05D1FFF770F80D
:1030400009480068047A08E0072C05D10749096897
:10305000C8688047082400E00824034909680C7206
:1030600000F01AF810BD0000240000202800002005
:10307000F0B5561C7510074E06EB41042B4605E0D3
:1030800034F8047B20F8017B401C5B1E002BF7D139
:10309000F0BD00000060004010B50D4890F82C1005
:1030A000002000F059F90B480068007A082805D183
:1030B0004002094908801020084908800548006836
:1030C000007A092801D1012010BD0020FCE7000092
:1030D000BC00002024000020340000203600002026
:1030E00010B5012000F0C6FD01240B48046000204B
:1030F0000A49088008460088074908600020091D21
:1031000008604FF4E05005490880084600880249ED
:103110000860002010BD0000405C00402E00002030
:1031200029B1064A52690243044B5A6104E0034A3A
:1031300052698243014B5A617047000000100240FF
:1031400029B1064AD2690243044BDA6104E0034A1A
:10315000D2698243014BDA617047000000100240DF
:1031600029B1064A92690243044B9A6104E0034A7A
:1031700092698243014B9A6170470000001002403F
:1031800029B1064AD2680243044BDA6004E0034ADC
:10319000D2688243014BDA607047000000100240A1
:1031A0000149086070470000D800424270B50546EA
:1031B000072D01D02E4805702D48007808284ED2E2
:1031C000DFE800F004111A202B384E4F2948006820
:1031D00028B900F053F806202549087002E00520C0
:1031E0002349087041E000F049F8042020490870A4
:1031F00001202049086038E002201D494870032062
:10320000087032E01A484078401E19494870084654
:10321000407808B90420087027E01748006884B295
:1032200044F01004144804600520114908700A2075
:1032300048701AE00E484078401E0D494870084614
:10324000407858B90C48006884B224F010040A4849
:1032500004600620087000200649086005E000BFF1
:1032600000BF06200249087000BF00BF70BD00000B
:103270004501002048010020405C004010B507488F
:10328000006884B224F0040404480460FFF7BCFD25
:103290004FF43F400149086010BD0000405C004011
:1032A00010B50948006805280CD108480168006875
:1032B000401C064A1060052904D100201146086010
:1032C000FFF7DAF810BD0000400100206400002084
:1032D000704700004FF6F8710140014A11607047D5
:1032E000505C004030B501460F4B1A78002014E0C6
:1032F00003060E4C04EB9353D3F8003C48F68F744E
:10330000234048F280042343C4B223430406074DFC
:1033100005EB9454C4F8003C401C9042E8D341F0C3
:103320008003034C236030BDB800002000500040F3
:103330004C5C004010B54A105300054A126892B226
:1033400002EBC002121D034C44F8123010BD000005
:10335000505C00400060004010B502460F48006815
:1033600080B200EBC200801D0D4C04EB40033E29EF
:103370000BDD481101F01F040CB9441EA0B24FF43C
:10338000004444EA80241C6007E0481001F0010476
:103390000CB1441CA0B284021C6010BD505C004003
:1033A0000060004030B50E4C04EB8003D3F8003CC5
:1033B0004BF68F7403EA040201F480530BB182F4DC
:1033C000805201F400530BB182F4005242F40043E6
:1033D00043F08003024D05EB8004C4F8003C30BD8F
:1033E0000050004010B50B4B03EB8002D2F8002CCC
:1033F0004BF68F7302EA030181F4805181F400518E
:1034000041F4004242F08002024C04EB8003C3F816
:10341000002C10BD0050004010B54A105200044B63
:103420001B689BB203EBC003024C44F8132010BD91
:10343000505C004000600040044A126892B202EB07
:10344000C002921C024B43F812107047505C0040BF
:103450000060004030B50E4C04EB8003D3F8003C14
:1034600048F6BF7403EA040201F010030BB182F0C6
:10347000100201F020030BB182F0200242F400435D
:1034800043F08003024D05EB8004C4F8003C30BDDE
:103490000050004010B50B4B03EB8002D2F8002C1B
:1034A00048F6BF7302EA030181F0100181F02001A8
:1034B00041F4004242F08002024C04EB8003C3F866
:1034C000002C10BD0050004010B5074B03EB8002EC
:1034D000D2F8002C48F68F131A400A43024C04EB32
:1034E0008003C3F8002C10BD0050004010B500F060
:1034F00001F810BD0CB50020019000903348006821
:1035000040F480303149086000BF3048006800F462
:10351000003000900198401C0190009818B9019863
:10352000B0F5A06FF1D12948006800F4003010B167
:103530000120009001E0002000900098012843D174
:103540002348006840F010002149086008460068E0
:1035500020F0030008600846006840F002000860A0
:103560001A4840681949486008464068486008465B
:10357000406840F4806048600846406820F47C1051
:1035800048600846406840F4881048600846006873
:1035900040F08070086000BF0C48006800F00070C8
:1035A0000028F9D00948406820F003000749486026
:1035B0000846406840F00200486000BF0348406889
:1035C00000F00C000828F9D10CBD000000100240EA
:1035D0000020024010B50020FFF7E2FD0121C805E0
:1035E000FFF7AEFD10BD000038B501242948006882
:1035F00080B2001D284931F8100080B201EB400074
:10360000009026480068007A092832D00098007897
:103610002249096808700098401C009000980078C2
:103620001E49096848700098401C0090009800EB03
:1036300044000090009931F8020B0091FEF77EFBE8
:10364000164909684880009800EB440000900099F2
:1036500031F8020B0091FEF771FB10490968888070
:10366000009800EB44000090009800880B4909681E
:10367000C880012009490968087208480068C088A4
:1036800010B9FFF731FC01E0FEF7A8FDFFF704FDDC
:1036900038BD0000505C0040006000402400002065
:1036A0002DE9F04754480068007800F07F08B8F131
:1036B000000F0AD150480068407A00F0DF004E4900
:1036C000096848720020BDE8F087B8F1020F7CD18C
:1036D00049480068408818B947480068007908B12F
:1036E0000220F0E7DFF8149143480068477927F09B
:1036F00080052C4640480068407900F0800038B1D1
:103700003F4901EB8400D0F8000C00F0300606E0E1
:103710003B4901EB8400D0F8000C00F4405699F8C6
:103720000000A84204D91EB133480068807A08B965
:103730000220C8E707F0800080B1314901EB840026
:10374000D0F8000C00F0300010284BD1E0B2FEF7AA
:1037500059FCE0B23021FFF77DFE43E0284901EB40
:103760008400D0F8000C00F44050B0F5805F39D1EF
:10377000E4B9244A92F82C10E0B2FFF7EDFD204A9C
:1037800002EB8401D1F8001C4BF68F7201EA0200B3
:1037900080F4805080F4005040F4004141F08001FA
:1037A000174B03EB8402C2F8001C1BE0E0B2FEF7EB
:1037B0000FFC134A02EB8401D1F8001C4BF68F7208
:1037C00001EA020080F4805000E011E080F4005033
:1037D00040F4004141F08001094B03EB8402C2F840
:1037E000001C00BF084909684869804700206AE753
:1037F00000BF022067E7000024000020B80000207E
:1038000000500040BC0000203000002010B50446ED
:103810002CB90120064909680882002010BD05491D
:10382000096808688047024800680A30F6E7000027
:10383000240000203000002010B502460648006831
:10384000438A32B98888C01A034C24682082002039
:1038500010BD08681844FBE72400002010B504469A
:103860002CB90120064909680882002010BD0549CD
:10387000096888688047024800680C30F6E7000055
:10388000240000203000002010B504462CB902208E
:10389000394909680882002010BD00203749088096
:1038A00035480068007800F07F0018BB324909688D
:1038B000487A00F0200131B13049097841F0020125
:1038C0002E4A117005E02D49097801F0FD012B4ABF
:1038D000117000F0400131B12849097841F001012F
:1038E000264A117005E02549097801F0FE01234AB6
:1038F00011703AE020480068007800F07F0001284D
:1039000001D11E48C8E71C480068007800F07F001D
:10391000022828D1184A1268517901F00F0001F0ED
:1039200080027AB1164B03EB8002D2F8002C02F031
:103930003002102A16D1114A127842F001020F4BC0
:103940001A700FE00E4B03EB8002D2F8002C02F449
:103950004052B2F5805F05D1084A127842F0010268
:10396000064B1A7001E0002096E7064909680869CD
:103970008047024890E70000240000201C0000203F
:10398000005000403000002010B50E480068C0789C
:103990000D494978884213DC0A480068807878B974
:1039A00008480068808858B906480068C07805490A
:1039B000096888720549096848688047002010BD79
:1039C0000220FCE724000020B80000203000002086
:1039D00010B507480068407A40F0200004490968A3
:1039E000487204490968C8698047002010BD00007A
:1039F00024000020300000202DE9F0412E4800680E
:103A0000467926F080073C462B480068407900F054
:103A1000800038B1294901EB8400D0F8000C00F097
:103A2000300506E0254901EB8400D0F8000C00F4D5
:103A3000405523480078A04208D91F4800684088B4
:103A400020B91DB11C480068807A10B90220BDE879
:103A5000F08106F08000A0B1184A02EB8401D1F891
:103A6000001C48F6BF7201EA020080F0100040F42A
:103A7000004141F08001114B03EB8402C2F8001CAD
:103A800014E00E4A02EB8401D1F8001C4BF68F7251
:103A900001EA020080F4805040F4004141F08001CE
:103AA000064B03EB8402C2F8001C00BF05490968FD
:103AB000886980470020CAE72400002000500040A9
:103AC000B80000203000002010B5174B1B68D978D3
:103AD000154B1B685879154B1B689A69904704462B
:103AE00011480068807AE8B13CB90F480068007955
:103AF00018B90D480068807808B1022010BD8CB953
:103B00000B490968C868804707480068407906493A
:103B10000968C87204480068C078034909680873D6
:103B20000020EBE70220E9E7240000202800002025
:103B30003000002038B500250020009021480068A2
:103B400084B200BF09E0204901EB8500D0F8000CE9
:103B500080B21E4941F825006D1C082DF3D344F4B2
:103B600080641848046044F00104046024F00104F7
:103B7000046000BF1348001D006800F48060002846
:103B8000F8D04FF6FF300F49091D0860002509E005
:103B90000E4850F8250080B20B4A02EB8501C1F8AF
:103BA000000C6D1C082DF3D344F008040548046094
:103BB000006884B244F0040402480460FEF716FD75
:103BC00038BD0000405C004000500040C43100207F
:103BD000042808D14FF0E021096941F004014FF0B9
:103BE000E022116107E04FF0E021096921F00401B2
:103BF0004FF0E0221161704710B51348006840F0A3
:103C000001001149086008464068104908400E4903
:103C10004860084600680E4908400B49086008469D
:103C2000006820F4802008600846406820F4FE0008
:103C300048604FF41F008860FFF758FC4FF00060A9
:103C40000449086010BD0000001002400000FFF8A9
:103C5000FFFFF6FE08ED00E00021024841800180F0
:103C6000012070478011002010B54FF48020FEF72E
:103C70006DFC10BD10B504461CB104A0FCF754FB4C
:103C800002E008A0FCF750FB10BD00007573622035
:103C900070756C6C20757020656E61626C650D0AC4
:103CA000000000007573622070756C6C20757020C8
:103CB00064697361626C650D0A00000010B5084804
:103CC0000849086002200968087207480749086027
:103CD000074808490860054909680868804710BD19
:103CE0006401002024000020BC00002028000020E7
:103CF000EC000020300000200EB54FF48020FEF7CD
:103D000025FC4FF48020009008208DF8050001204C
:103D10008DF806006846FEF71FFC14208DF8080099
:103D200001208DF8090000208DF80A0001208DF88F
:103D30000B0002A8FFF7A0F82A208DF80800002049
:103D40008DF8090002A8FFF797F80EBD10B588B0EE
:103D5000002469480068694908800846008800F422
:103D6000007067490988084050B14FF6FF5062491A
:103D7000086064480078401C62490870FFF790FAB8
:103D80005E48008800F400405D490988084008B199
:103D9000FDF7DAFF5948008800F480605849098827
:103DA000084030B14FF6FF30534908605649486823
:103DB00080475248008800F4005051490988084063
:103DC00018B14DF6FF704C4908604C48008800F46B
:103DD00080504B490988084030B14EF6FF70464983
:103DE00008600020FFF7E2F94448008800F4006012
:103DF00043490988084060B14448007810B1FFF792
:103E000099FE02E00220FFF7D1F94FF2FF703A4924
:103E100008603A48008800F48070394909880840F1
:103E2000002866D04FF6FF6033490860081D00681F
:103E300000F40040002856D035480068401C344942
:103E4000086008460068032850D92B48001F006806
:103E500000F00800002849D12748001F006880B200
:103E60002C490860002408E02B4901EB8400D0F8BD
:103E7000000C80B24DF82400641C082CF4D32548B3
:103E8000006840F00100234908600846006880B2DD
:103E90001949091F08601F48006820F001001D49EA
:103EA00008600846006880B21349091F086000BF17
:103EB0001148006800F480600028F9D04FF6FF3008
:103EC0000D490860002408E05DF8240080B2124A21
:103ED00002EB8401C1F8000C641C082CF4D3002010
:103EE0000B49086002E00020094908600720FFF73D
:103EF0005DF908B010BD0000445C0040680000207F
:103F00002E0000206A000020BC0000204401002098
:103F10006C000020700000200050004010B5FFF73A
:103F200015FF10BD10B5044601210420FFF718F954
:103F30003CB10F48006880B220F002000C490860D4
:103F400014E00B48006880B240F0020008490860A5
:103F50000848006820F47F20064908600846006889
:103F600040F44C30086000200349086010BD000098
:103F7000405C004004080140B00121420020064995
:103F800008604FF43F400549088008460088024910
:103F9000091F086000207047445C00402E0000208C
:103FA0002DE9F04104460E46002504F07F00FEF79F
:103FB000D5FC054604F07F00FEF7C0FC07462A4604
:103FC00039463046FFF754F82846BDE8F081000036
:103FD00008490988084A505406490988491C8AB288
:103FE00004490A800988B1F5805F02D100220149A5
:103FF0000A807047801100208001002070B50546BE
:104000000C460C4909880C4A881822462946FCF7B8
:10401000B6F908480088204481B20648018000882B
:10402000B0F5805F04DB002102480180012070BDF3
:104030000020FCE7801100208001002000BFFEE787
:10404000F0B5144604F1010C4FEA6C07DFF824C008
:104050000CEB41033D460AE00678401C90F800C096
:1040600046EA0C2223F8022B9B1C401C6D1E002DDF
:10407000F2D1F0BD0060004070B504460025212C4F
:1040800008D112480068007800F07F0021280ED186
:104090000F4D0CE0202C0AD10C480068007800F08D
:1040A0007F00212800D10B4D20200B4908700DB94D
:1040B000022070BD05480068856100210348006842
:1040C00041820020A8470020F3E7000024000020E0
:1040D0000541000895420008AC00002010B50446D8
:1040E00002492046FFF7A8FB10BD00001801002080
:1040F00010B5044602492046FFF79EFB10BD0000A4
:1041000010010020014629B90820034A12681082D4
:10411000002070470148FCE724000020B000002088
:1041200070B5054606480068C478042C01DD0020FF
:1041300070BD044800EBC4012846FFF77DFBF7E79C
:1041400024000020200100200246002901DD022079
:104150007047012A01DD0220FAE70020F8E700009D
:10416000014608480068007800F07F00212807D148
:10417000022901D100207047222901D10020FAE74D
:104180000220F8E72400002010B500203449096817
:1041900088723448C0793249096848720020304931
:1041A0000968C872FFF796F84FF400710020FFF716
:1041B0008BF910210020FFF74DF940210020FFF777
:1041C000B9F880210020FFF727F90020FDF734FF20
:1041D000254890F82C100020FFF7BEF80020FFF7CC
:1041E00001F900210120FFF76FF9C0210120FFF73D
:1041F00013F920210120FFF72DF900210120FFF7FD
:10420000D1F84FF4C0610220FFF75EF94FF48071DE
:104210000220FFF701F900210220FFF7C3F8202157
:104220000220FFF717F900210320FFF74DF94FF4A3
:1042300088710320FFF77EF840210320FFF78CF8F8
:104240004FF440510320FFF7ADF800210320FFF7A2
:1042500001F90020FFF746F801200449086010BD6D
:1042600024000020CE490008BC00002040010020AE
:104270000348817A11B10521024A1160704700009C
:1042800064010020400100200420014908607047BB
:1042900040010020014629B90820034A1268108213
:1042A000002070470148FCE724000020B0000020F7
:1042B00010B505480078202804D1FFF7CDFC002078
:1042C0000149087010BD0000AC00002070470000DC
:1042D00010B5FEF765FB0020054909688872FEF7F6
:1042E000FFFEFFF74BFE00200249086010BD0000F2
:1042F0002400002040010020490050EAC12018BFDE
:1043000004204A0D18BF40F0010040F2FF72B2EBEA
:10431000515F08BF40F00200012808BF0520704728
:1043200030380A2801D2012070470020704700BFB2
:104330007047000010B502460B460120084CA060F3
:10434000002104E052F82100054C2060491C9942EC
:10435000F8D300BF00BF00BF00BF0148006810BD18
:104360000030024010B56FF00400FFF731FC0A483E
:1043700000680A49B0FBF1F0094908700846007866
:1043800000EB4001C1EBC0104FF6FF7101EAC00025
:104390000449088010BD00000000002000127A00CF
:1043A00014000020160000200146114A12884A43DA
:1043B0004FF0E0235A6100229A611A46126942F0D6
:1043C00001021A6100BF4FF0E022106900F0010203
:1043D0001AB100F48032002AF5D04FF0E0221269C1
:1043E00022F001024FF0E0231A6100229A61704727
:1043F000160000207047000010B510480078012812
:1044000004D1FEF707FB00200C4908700C48007827
:10441000012811D16420FFF7C7FF00BF09480068D9
:1044200000F4E06008490843001D06490860BFF336
:104430004F8F00BF00BFFEE710BD00005C010020F1
:104440005D0100200CED00E00000FA0510B5044607
:104450006068044908602068FBF72EFF0148006887
:10446000804710BD60010020FEF728FC104800685E
:10447000006810490840B0F1005F09D10E4800689B
:10448000012805D1FEF702FC09490868FFF7DEFFA5
:10449000FFF768FFFEF7DAFC08A000F06DF80121D5
:1044A0004020FEF73DFE00BFFFF7A6FFFCE700003F
:1044B000FCFF03080000FE2F308121426E6D736CFB
:1044C0000A00000070B505460C4627480078012810
:1044D0002AD10020254908602868B4EB800F0ED14E
:1044E000224629462248FBF74AFF2048046001681B
:1044F0001F48FEF7F9FA00201C49086033E02868DD
:10450000B4EB800F0ED20020174908702868800095
:1045100018490860224629461548FBF730FF134822
:10452000046020E000BF1EE01149104A126888189C
:1045300022462946FBF723FF0C48006820440B491C
:104540000860084600680B49096888420BDB0120B7
:10455000054908700548006881100548FEF7C4FA4F
:1045600000200249086070BD380000203C00002097
:1045700084210020400000200FB438B505A8009029
:104580000B48009A0499FBF7BDFE002000900848F4
:10459000FBF7D6FE85B2002405E00549085DFFF76C
:1045A00017FD601C84B2AC42F7DB38BC5DF814FB2D
:1045B0008411002010B5044607480068A0420AD0C4
:1045C000FEF7ACF80548FEF729F821460248FEF749
:1045D0006FF8FEF763F810BDFCFF030800F803084E
:1045E00010B500290AD00878002807D0054878447B
:1045F000FCF79AFF002801D0002010BD0248784443
:1046000010BD00009A0500009205000010B50029B9
:104610000AD00878002807D005487844FCF784FFC2
:10462000002801D0002010BD0248784410BD0000D1
:104630008A050000820500004FF47F0C1CEAD012AE
:104640001EBF1CEAD11392EA0C0F93EA0C0F00F084
:10465000858090EA010F48BF42F4807240F4000C5C
:1046600041F400002CF07F4120F07F4000B58142F2
:10467000A2EB03020FF2081CACEB504EC0F100009D
:104680009EF800E04FEA4E0E00FB0EFC38BF4900DA
:104690004FEA2C1C02F5FA020CFB0EF34FEACE1E79
:1046A0004FEA112C4FEAC1210EEB635E42EB22422E
:1046B0000EFB0CFC4FEA1C5300FB03114FEA112CBC
:1046C0004FEA01310EFB0CFC4FEADC4C00FB0C11F5
:1046D000C14228BF09184CEB03335DF804EB10EB23
:1046E000410143EBC250B2F57C0F38BF704729D56A
:1046F00012F0F00F1CBF00F1C04000F00040704706
:10470000008182838485868788898B8C8D8E8F91AA
:104710009293959697999A9C9D9FA0A2A3A5A7A8CE
:10472000AAACAEB0B2B3B5B7B9BCBEC0C2C5C7C9FA
:10473000CCCED1D4D7D9DCDFE2E6E9ECF0F3F7FA5E
:10474000FE0000004FEA400C0CF1807CBCF17E4F73
:1047500028BF7047B0F1C04000F027B990EA010FC0
:104760000CEAD11348BF42F48072624538BF6345FA
:1047700007D213F47F0F16D080EA010000F000404A
:10478000704710B500F0CBF8097EFC3E00F005B88C
:1047900080EA010000F00040704780EA010000F06C
:1047A000004000F002B912F47F0F04BF02487047C6
:1047B00080EA010000F0F9B80000C07F41000B0E54
:1047C000D3F19E0208D950F400034FEA032323FAE1
:1047D00002F048BF4042704710B500F0A0F800BF9B
:1047E00049922480002070476FF0004282EA200046
:1047F00070470000B0FA80F310FA03F2C3F19D0392
:104800000AD0D90501EB1220530638BF704700F1DA
:10481000010008BF20F00100704700004FF47F0C3A
:104820001CEAD0121EBF1CEAD11392EA0C0F93EAC5
:104830000C0F00F0478090EA010F48BF42F48072ED
:104840004FF0004C4CEA00204CEA012102EB03023D
:10485000A0FB0113A2F50002002918BF43F00103D9
:104860005B0028BF4FEA330342EB22425FEA132C7E
:104870004CEBC2502EBFBCEB436FB2F57C0F7047C0
:104880004FEA036CBCF1004F08BF20F00100B2F505
:104890007C0F38BF70470BD582F0FF0212F5803FC6
:1048A000C8BF704700F1C040D8BF00F0004070475B
:1048B00000F5000C5FEA4C0C48BF7047B0F1C040F7
:1048C00000F073B890EA010F0CEAD11348BF42F42C
:1048D0008072624538BF634504D280EA010000F06F
:1048E0000040704710B500F01AF800BF8900013E83
:1048F00000F007B800F009B85FEA410C5FEA1C6CF1
:1049000008D080EA010000F050B85FEA400C5FEA8E
:104910001C6CF6D14FF00040A0F5800070470EF1FE
:10492000020E2EF0030E5EF8044B244204D44FEA2C
:104930004102B2F17F4F11D84FEA4003B3F17F4FEC
:104940000CD80ED14FEAD07CB2F17F4F0CEB4C0C5F
:104950000CF1020C08BF4CEBD17C04E04FF0080CCA
:1049600001E04FEAD17C0CEB4C0324FA03F404F091
:104970000704B4F1040C06D20EEB840CBDE8104021
:104980004CF0010C6047DFE80CF0070802024FF022
:104990000040A0F5800010BD0846420018BFD2F1CB
:1049A000807288BF00F0004010BDFF2141EAD05066
:1049B000C0057047FCF7C1B9FCF7F6BA1201000256
:1049C000020000408304455700020102030109026E
:1049D0004300020100C0320904000001020201008C
:1049E000052400100105240100010424020205240D
:1049F000060001070582030800FF09040100020AFE
:104A00000000000705030240000007058102400086
:104A100000040309042603530054004D0069006399
:104A20000072006F0065006C006500630074007226
:104A3000006F006E00690063007300300353005480
:104A4000004D00330032002000560043004F004D5F
:104A500000200042006F006F0074004C006F006186
:104A600000640065007200200020000000000000CB
:104A700000000000303132333435363738394142A6
:104A800043444546403058003031323334353637B0
:104A9000383961626364656640307800040000085C
:104AA0000000000000000002000100001030313260
:104AB000333435363738396162636465667870003F
:104AC0003031323334353637383941424344454644
:104AD0005850000002400000000000A0000000004C
:104AE00005400000000000C8000000000C4000006D
:104AF0000000409C00000000194000000020BCBEE7
:104B00000000000034400000BFC91B8E00000004FC
:104B1000B5400000504BCFD06607E2CF0100000047
:104B20006C4100003E8251AADFEEA7340100000074
:104B3000D9420000DCB5A0E23A301F97FFFFFFFF2B
:104B4000B4450000FD25A0C8E9A3C14FFFFFFFFF4A
:104B5000FF3F00000000008000000000FF3F000059
:104B60000000008000000000B44C0008000000209D
:104B7000640100006C010008404D00086401002041
:104B8000E4360000C80100081C00000043000000DB
:104B9000F8FFFFFF0C0000000E0000000F000000F7
:104BA0002E0000001001000043000000F8FFFFFF8E
:104BB0000040404040404040404041414141414030
:104BC00040404040404040404040404040404040E5
:104BD0004005020202020202020202020202020274
:104BE0000220202020202020202020020202020279
:104BF00002029090909090901010101010101010D1
:104C000010101010101010101010101002020202DC
:104C10000202888888888888080808080808080820
:104C2000080808080808080808080808020202021C
:104C30004000000000000000000000000000000034
:104C40000000000000000000000000000000000064
:104C50000000000000000000000000000000000054
:104C60000000000000000000000000000000000044
:104C70000000000000000000000000000000000034
:104C80000000000000000000000000000000000024
:104C90000000000000000000000000000000000014
:104CA0000000000000000000000000000000000004
:104CB000000000001184A24A040009240102030438
:104CC00006070809B201141A03531254124D123385
:104CD0000225321379240C1C08772E040B102D2585
:104CE00014512AC27A12081A040713D142140889EF
:104CF000411B08B1081ACD041379401B0861101A32
:104D000049041AF10C1ADD041A210C4132402944DD
:104D10001A71280916741A891C13BC493308121A0F
:104D2000CE08324313114A3308041A150832261AE2
:104D30003B083230224473201A2992011C000000E3
:0400000508000131BD
:00000001FF
